:020000040800F2
:1000000080100020011800087D5400083F540008AB
:1000100079540008A1180008C57400080000000009
:100020000000000000000000000000007F690008E0
:10003000011A000800000000D95900088169000871
:100040001B1800081B1800081B1800081B180008C4
:100050001B1800081B180008112900081B180008AD
:100060001B1800081B1800081B1800081B180008A4
:100070001B1800081B1800081B1800081B18000894
:100080001B1800081B1800081B1800081B18000884
:100090001B1800081B1800081B1800081B18000874
:1000A0001B1800081B1800081B1800081B18000864
:1000B000A96A00081B1800081B1800081B18000874
:1000C0001B1800081B1800081B1800081B18000844
:1000D0001B1800081B1800081B1800081B18000834
:1000E000292900081B1800081B1800081B18000805
:1000F0001B1800081B1800081B1800081B18000814
:100100001B18000800000000000000001B18000879
:100110001B1800081B1800081B1800081B180008F3
:100120001B1800081B1800081B1800081B180008E3
:100130001B1800081B180008000000000000000049
:100140001B1800081B1800081B18000800000000FE
:10015000000000000000000000000000000000009F
:100160001B1800081B1800081B180008B5740008AD
:100170001B1800081B1800081B1800081B18000893
:100180001B1800081B1800080000000000000000F9
:100190001B180008DFF80CD000F006F800480047F4
:1001A0008983000880100020064C074D06E0E068B7
:1001B00040F0010394E8070098471034AC42F6D3AE
:1001C000FFF7ECFFEC0100080C02000802E008C891
:1001D000121F08C1002AFAD170477047002001E0C1
:1001E00001C1121F002AFBD1704700000C02000859
:1001F00000000020DC000000CC010008E80200083C
:10020000DC000020A40F0000DC010008000000005A
:1002100000000000000000000000000000000000DE
:1002200000000000000000000000000000000000CE
:1002300000000000000000000000000000000000BE
:1002400000000000000000000000000000000000AE
:10025000000000000000000000000000000000009E
:10026000000000000000000000000000000000008E
:10027000E80300000000001A001601010000000061
:10028000000000000000000000000000000000006E
:10029000000000000000000000000000000000005E
:1002A0000101000000000000000000000700000045
:1002B000000000000000000000000000000000003E
:1002C000000000000000000000000000000000002E
:1002D00000000000001BB70000000000000000004C
:0802E000000000000000000016
:020000040800F2
:101800000648804706480047FEE7FEE7FEE7FEE79A
:10181000FEE7FEE7FEE7FEE7FEE7FEE72D6A0008CB
:1018200095010008202A04DB203A21FA02F0002169
:10183000704721FA02F3D040C2F1200291400843E0
:101840001946704740EA01039B0703D009E008C925
:10185000121F08C0042AFAD203E011F8013B00F875
:10186000013B521EF9D27047D2B201E000F8012BC1
:10187000491EFBD270470022F6E710B513460A4610
:1018800004461946FFF7F0FF204610BD03480078D4
:1018900020F0010001490870704700005B00002043
:1018A00000BFFEE710B54F48006820B14D48006802
:1018B000401E4C4908604C48007800F0020050B3CC
:1018C0004A48008800F48060C8B14848008820F485
:1018D00080604649088004F081F84FF47A704149ED
:1018E00008604348007800F0010020B10121002089
:1018F00006F0E6FF03E00021084606F0E1FF394864
:10190000006880B900F05CFF1B2000F07BF8142019
:1019100000F086F807E04FF47A7032490860002141
:10192000084606F0CDFF30480078002858D03148EE
:10193000006818B12F48006880474FE09FED2E0ADD
:1019400010EE100A2D4908609FED2B0A10EE100AC8
:1019500048609FED290A10EE100A88609FED260A64
:1019600010EE100AC8609FED240A10EE100A0861FC
:101970009FED210A10EE100A48610846007E20F013
:10198000010008769FED1C0A10EE100AC1F819003C
:101990009FED190A10EE100AC1F81D009FED160AFE
:1019A00010EE100AC1F821009FED130A10EE100A84
:1019B000C1F825009FED100A10EE100AC1F82900A9
:1019C0009FED0D0A10EE100AC1F82D00084690F8A0
:1019D000310020F00101094880F8311005F06CF861
:1019E00010BD0000640000205E000020CC07002035
:1019F0005B0000207000002000000000980900201B
:101A00007047000038B504460448C48000940222A0
:101A100069464FF49A7000F0E3FE38BDCC07002011
:101A200038B50446044844800094022269464FF4C5
:101A3000987000F0D5FE38BDCC07002010B503F03B
:101A40007CFF0149088010BDCC07002038B5044652
:101A500040F6050101EBC4000222694600F0C2FB1A
:101A600038BD000070B50446054800EBC405E879B0
:101A700040F00100E871204600F02CF870BD000035
:101A8000F807002070B50446054800EBC405E87966
:101A900020F00100E871204600F01CF870BD000045
:101AA000F807002038B50446094800EBC40540F6A5
:101AB000050101EBC4000222694600F093FBBDF86A
:101AC00000000012A871BDF80000687138BD000068
:101AD000F807002070B50446054800EBC40540F641
:101AE000070101EBC4000122E91D00F079FE70BD81
:101AF000F807002008B5002000900A484088032815
:101B000006D1012269464FF4845000F069FE05E0D9
:101B1000012269464FF4845000F062FE0120014921
:101B2000887408BDCC07002010B50222054910209A
:101B300000F058FB03480A38408902490A394881B5
:101B400010BD0000D607002070B5054608221E49CA
:101B50004FF4016000F046FB08221B49083140F6B3
:101B6000180000F03FFB184C2088B0F5885F0BD1BF
:101B7000608816490988884206D12079242803D133
:101B8000A07900F0010028B904200F493C39C8773A
:101B9000122070BD0C4C08342088B0F58C5F0BD13E
:101BA00060880B490988884206D12079202803D112
:101BB000A07900F0010028B9082003493C39C87712
:101BC0001220E6E72846E4E7080800205400002039
:101BD0005600002070B5054608222549100200F085
:101BE00001FB08222249083140F6080000F0FAFA09
:101BF0001F4C2088B0F5805F0CD16088802809D107
:101C00002079262806D1A4F12C0090F8320000F0AB
:101C1000010058B9012016492C39C8770020FFF778
:101C200021FF0120FFF71EFF112070BD104C08346A
:101C30002088B0F5845F0CD16088802809D1207994
:101C4000222806D1A4F1340090F83A0000F00100F7
:101C500058B9022006492C39C8770020FFF702FF47
:101C60000120FFF7FFFE1120DFE72846DDE7000037
:101C7000F807002070B5054608222549100200F03B
:101C8000B1FA08222249083140F6080000F0AAFA09
:101C90001F4C2088B0F5805F0CD16088802809D166
:101CA0002079262806D1A4F12C0090F8320000F00B
:101CB000010058B9012016492C39C8770020FFF7D8
:101CC000D1FE0120FFF7CEFE112070BD104C08346C
:101CD0002088B0F5845F0CD16088802809D12079F4
:101CE000222806D1A4F1340090F83A0000F0010057
:101CF00058B9022006492C39C8770020FFF7B2FEF8
:101D00000120FFF7AFFE1120DFE72846DDE70000E6
:101D1000F8070020022001E0421ED0B2002803DDB7
:101D2000174A125C002AF7D140B30222144B1A540E
:101D3000144A02EBC011144A127B521CD2B2124B4D
:101D40001A7302F007021A731A46127B0AB90122AB
:101D50001A7300224A800A7922F03F020A710A7936
:101D600022F0C0020A71084A137B4A7963F3071212
:101D70004A71054A527C521C034B5A74704700004A
:101D80005000002018080020CC0700202DE9F04169
:101D90004248007808B9BDE8F0814148007C98B914
:101DA0004048007801280FD13F4F787900F00F00AC
:101DB000032809D13888082803DA082003F042FBF9
:101DC00002E00320364908743548007C132804D10A
:101DD0003348807B08B904F019F93148007C0328A6
:101DE0005AD1314C2646E0880513022D07D1207ABE
:101DF000402804D120880A2801D104F09DF9022D41
:101E00000ED1207A00F0EF00602809D120880A283E
:101E100006D12348C07C402802D104F043FA3BE0BD
:101E2000022D07D1207A00F0F100212802D103F021
:101E300011FE31E0082D07D1307A00F07F00012833
:101E400002D104F031F827E0082D07D1307A00F0F4
:101E50007F00032802D103F095FF1DE0082D07D174
:101E6000307A00F07F00052802D103F0F9FE13E07C
:101E70000B48007C03280FD11DB9052003F0E2FABE
:101E800005E0E17AB4F80900084A03F0BDFD00203E
:101E9000044908700249087400BF7CE75300002021
:101EA000CC07002050000020180800200000010688
:101EB00010B503F07BFD10BD70B500246F4D704868
:101EC000007808B9002070BD6E48008800F44470A6
:101ED00028B10020FFF7E6FD0120FFF7E3FD694888
:101EE000807B28B3674890F83900C0F34000F8B110
:101EF000FFF700FE6348C07B20B100206149C97B29
:101F0000614A50545F48807B5F49085C062803D1D2
:101F10005C49887B00F098FC05205A49897B5A4A25
:101F200050545848807B5749C87300208873CAE7CB
:101F3000544890F83A00C0F340005249897FC1F3F9
:101F40004001884235D04F48807B10B94D48C07B56
:101F500068B34C48807B20B94A49C87B00F074FCC8
:101F60000EE00120FFF77EFD06204649897B464AA8
:101F700050540120FFF786FD4249C87B00F064FC05
:101F8000404890F83A0041083E48807F61F34100A4
:101F90003C4988770846807F4208084690F83B1005
:101FA00062F3410180F83B100120FFF793FD002010
:101FB00089E73448407CD8B13248807C28B9314820
:101FC00090F83900C0F3C00090B900F0D1F8044691
:101FD00074B1204600F038FC04202B4908552948EC
:101FE0008473407C20B12748407C401E25494874BA
:101FF000244890F83100C0F3C00060B32248007854
:1020000048BB2048807B30BB1E48007C18BB00F0DA
:102010001DF91C4890F8310020F00801194880F89B
:102020003110288828B9052003F00CFA0020164941
:1020300008706879000940B11248407B6979B0EBBB
:10204000111F02D1002010490870687900090D495C
:102050004873012037E70B48008800F0100058B1A2
:102060000420FFF7F3FC0520FFF7F0FC0620FFF744
:10207000EDFC0720FFF7EAFC002024E71808002009
:1020800053000020CC0700205000002070B504460B
:102090000D46A4F5E050123838B1012824D0A0F53F
:1020A000C640EE3800284ED13DE02848007801288F
:1020B00002DD01202549087025480088B0F5B05F91
:1020C0000BD02348008841F20161884205D02048A6
:1020D000008810B1481E1E49088006F017FD1D49F2
:1020E00008801D4908802FE01C480078012802DD87
:1020F00001201A4908701A480088B0F5D05F0BD04B
:102100001748008841F60121884205D01048008810
:1021100010B1481E1249088006F04AFD1149088096
:102120001149088010E01148006810B10F4800689C
:102130008047012D02D0022D02D100E001E000E035
:1021400000BF00BF00E000BF00BF70BD6F000020F7
:102150006C00002054000020620000206E0000206F
:102160006A0000205600002060000020740000205B
:10217000022001E0411EC8B2002803DD0249095CCB
:102180000329F7D1704700005000002070B50546C4
:102190000C4641F6124085420BD1002C09DD0E4859
:1021A000007830B10D4A2146284603F02DFC00206E
:1021B00070BD41F6134085420BD1002C09DD084863
:1021C000007830B1054A2146284603F01DFC002066
:1021D000EEE70120ECE700006F000020020001069E
:1021E0006E0000202DE9F04104460F461646B84621
:1021F00027E0B4F5805F01DB354618E0042E01DDF1
:10220000042000E03046054604F0010008B1012535
:102210000DE004F0020038B105F0010008B1012022
:1022200000E00220054602E0032D00D101252A46E8
:102230002146404603F093FB701B86B2A844601908
:1022400084B2002ED5DCBDE8F081000038B5254C05
:1022500025484088032820D1062221464FF480508B
:10226000FFF7C0FF20880090BDF800007A2801D950
:102270007A200090BDF80020A11D41F20600FFF772
:10228000B1FFBDF80000801D802826D201226946DA
:1022900041F27F00FFF7A6FF1FE0062221464FF420
:1022A0008050FFF79FFF20880090BDF800007A283B
:1022B00001D97A200090BDF80020A11D41F206004E
:1022C000FFF790FFBDF80000801D802805D2012295
:1022D000694641F27F00FFF785FF0120034908703E
:1022E00038BD000018080020CC0700205000002056
:1022F0007047000010B504462046FFF725FC044651
:10230000122C06D00320FFF7BDFB01200B490870FB
:1023100011E00220FFF7A6FB0320FFF7A3FB08480C
:10232000C07F00F0080018B11E20FFF76BFB02E031
:102330001D20FFF767FB204610BD00005E00002057
:10234000CC07002010B504460020FFF79BFB0120BE
:10235000FFF798FB0020FFF7A5FB0120FFF7A2FB8A
:102360002046FFF737FC044600F0100030B116207D
:10237000FFF748FB0020094908700CE0084890F876
:102380003A0041080648807F61F34100044988779C
:10239000012002490870204610BD000053000020B3
:1023A000CC07002010B504460020FFF76BFB01208E
:1023B000FFF768FB0020FFF775FB0120FFF772FBBA
:1023C0002046FFF757FC044600F0100030B11520FE
:1023D000FFF718FB0020094908700CE0084890F846
:1023E0003A0041080648807F61F34100044988773C
:1023F000012002490870204610BD00005300002053
:10240000CC07002010B504460220FFF73BFB044830
:10241000007840F0020002490870204610BD00001C
:102420005E0000202DE9FC410027C248008800F032
:10243000010058B10222BF49091D4FF49070FFF707
:10244000D1FEBC488088BB49888008E0B948008834
:1024500000F0100008B1012701E0BDE8FC81B5489B
:10246000808800F01F04B348408800F01F000090EF
:102470009DF80000019004F0100008B9012C06D16D
:1024800004F00F049DF8040000F00F000190002FED
:102490004ED09DF8000000F00E00002848D09DF8B6
:1024A0000000032844D0A4480078002840D09DF8BC
:1024B0000000FFF78FFB05469DF80000FFF744FB87
:1024C00006469DF8040000F0100018B104F010005A
:1024D00000B9C2E7112D12D19848007818B100F068
:1024E0006FF900F033F900F03FF91620FFF78AFA90
:1024F0000020914908702846FFF792FAADE78F480F
:102500000078A8B1122E13D100F05AF900F01EF98C
:102510008848C07F00F0080018B11E20FFF772FA4B
:1025200002E01D20FFF76EFA3046FFF779FA94E7D4
:102530009DF8040000F0100018B104F0100000B97C
:102540008BE79DF8000064F31F10C0B200907C4838
:10255000006848B17A480068006828B17848006887
:1025600001A90268684690479DF80000332845D0CD
:102570001EDC222838D00EDC14284FD006DC1128AF
:1025800031D012284DD0132873D14FE0182842D0F3
:102590002128F9D12AE0282873D004DC23284BD045
:1025A0002428F1D170E0312827D03228ECD142E044
:1025B00048286ED00EDC422846D006DC34286BD08A
:1025C000382874D041287FD11FE0432835D04428D3
:1025D0007AD13AE08138082876D2DFE800F0174C4B
:1025E0002F637575750600BF00BF84E0FFF79CFA86
:1025F0002046FFF7A7FE01907DE000BFFFF794FAA9
:102600002046FFF7CFFE019075E000BF112001903A
:10261000FFF7F8F96FE000F0D3F800BF00F096F88C
:1026200000BF00F0A1F80120019064E000F09CF8E8
:10263000012001905FE000BF00BF00BF12200190A9
:102640001120FFF7DFF956E000BF06F05FFA3D49C1
:10265000088006F0ADFA3C4908802046FFF74AFEA4
:1026600001909DF80400A04202D10220FFF70AFA6F
:1026700041E029E005E0122001901120FFF7C2F9A6
:1026800039E000F09DF800BF00F060F802200190F2
:1026900031E014E000E00AE0142001901120FFF77F
:1026A000B1F928E02046FFF7ADFE019023E01420A9
:1026B00001901120FFF7A6F900F082F81BE004203A
:1026C000019000F07DF816E09DF80400082803D181
:1026D00000F076F8042001909DF80000042801D154
:1026E00000F034F89DF8040040F010000190122032
:1026F000FFF788F900BF00BF1148006848B11048D3
:102700000068406828B10E48006801A94268684620
:1027100090479DF8040000F0100028B90548C088D3
:1027200010B10020FFF76EF99DF80400FFF778F96B
:1027300000BF92E6CC070020530000205E0000207E
:102740004C000020540000205600002010B500204E
:10275000044908700320FFF785F90220FFF782F98A
:1027600010BD00005E00002010B500201149087067
:10277000FFF778F90120FFF775F9002404E0002045
:102780000D490855601CC4B2032CF8DB00200B492E
:102790008873C8730874012088740846807F20F00D
:1027A0000200887700204873C8744883888348747F
:1027B00010BD00005300002050000020CC07002076
:1027C00010B50648007800F00100044908700220A6
:1027D000FFF748F9FFF75AF810BD00005E0000202F
:1027E0002DE9F04104460F461646B84627E0B4F5F9
:1027F000805F01DB354618E0042E01DD042000E097
:102800003046054604F0010008B101250DE004F052
:10281000020038B105F0010008B1012000E00220FB
:10282000054602E0032D00D101252A4621464046F7
:1028300003F0A8F8701B86B2A844601984B2002E79
:10284000D5D1BDE8F0810000F8B505461A4800EB87
:10285000C51600200090348818484088032813D1FA
:102860007A2C00D97A24A01D82B231464FF48450CC
:10287000FFF7B6FFA01D802819D20122694641F258
:10288000FF00FFF7ADFF12E07A2C00D97A24A01DDB
:1028900082B231464FF48450FFF7A2FFA01D80287A
:1028A00005D20122694641F2FF00FFF799FF00209F
:1028B00002498874F8BD000018080020CC070020E9
:1028C00010B50F48007800B910BD0E48007CA0B9C3
:1028D0000D480078012810D10C4C607900F00F00F1
:1028E00008B1208818B9052002F0ACFD02E00220F2
:1028F00002F0A8FD00200449087000BFE4E70000D2
:1029000053000020CC0700205000002018080020B1
:1029100010B50448006800F0010010B1012000F07B
:10292000A7F910BD1404014010B50948006800F46F
:10293000005018B14FF4005000F09AF904480068B4
:1029400000F4804018B14FF4804000F091F910BDC0
:102950001404014000BFFEE700200749C861074892
:10296000006940F00400054908610846006940F02C
:102970004000086170470000E00000200020024095
:102980000021074AD1610749096941F00201054A5E
:10299000116111464861096941F0400111617047B8
:1029A000E0000020002002400022054BDA61054AC9
:1029B000126942F00102034B1A6101807047000066
:1029C000E00000200020024000200F49C96801F00B
:1029D0001001102907D10D49C96941F002010B4AC4
:1029E000D16140F010000849C96801F004010429D0
:1029F00007D10649C96941F00101044AD16140F09B
:102A000004000149C860704700200240E000002037
:102A100070B5044600F034FA054609E0601C38B190
:102A200024B100F02DFA401BA04201D9032070BD53
:102A30000F48C06800F001000028EFD10C48C068C2
:102A400000F02000202801D10949C8600848C0686A
:102A500000F01000102805D00548C06800F0040000
:102A6000042803D1FFF7B0FF0120E0E70020DEE7F4
:102A7000002002402DE9F04104460E4601270025C2
:102A800000BF2648007E012802D10220BDE8F08167
:102A900001202249087600BF2068012812D14CF29B
:102AA0005030FFF7B5FF88BBFFF756FF4CF25030B0
:102AB000FFF7AEFF07461A48006920F004001849E6
:102AC000086123E04CF25030FFF7A2FFF0B94FF05D
:102AD000FF303060656812E02846FFF751FF4CF286
:102AE0005030FFF795FF07460D48006920F00200BF
:102AF0000B4908610FB1356007E005F50065D4E9C1
:102B0000011001EBC020A842E6D800BF00BF0020A2
:102B10000249087600BF3846B8E70000E000002010
:102B2000002002402DE9FE4F05468B461746984689
:102B3000012600240020029000BF2448007E0128C6
:102B400002D10220BDE8FE8F01202049087600BF97
:102B50004CF25030FFF75CFF064686BB012D02D1D8
:102B60000120029006E0022D02D10220029001E035
:102B70000420029000241EE02201B946C2464846C5
:102B80005146FEF74FFE80B20190022000FB04B0D8
:102B900000900199FFF708FF4CF25030FFF738FF23
:102BA00006460B48006920F001000949086106B19A
:102BB00004E0601CC4B202988442DDDB00BF00BFA9
:102BC00000200249087600BF3046BBE7E000002045
:102BD000002002400748006900F0800028B1064844
:102BE000044948600548486001E001207047002022
:102BF000FCE700000020024023016745AB89EFCDD0
:102C000010B50446012C1AD0B4F5005F03D0B4F51A
:102C1000804F1ED109E01048006828B10F480078A5
:102C200010B10D480068804714E00D48006828B1D5
:102C30000C48007810B10A48006880470AE00A484A
:102C4000006828B10948007810B10748006880473B
:102C500000E000BF00BF10BD1400002020000020D5
:102C600018000020210000201C000020220000206D
:102C700010B5044604480068204020B102480460B2
:102C80002046FFF7BDFF10BD1404014078B5034690
:102C9000002200240020D5E0012696400D6805EAB8
:102CA0000604002C72D04D68022D02D04D68122D02
:102CB00013D1D60803F1200555F826005507EE0E6E
:102CC0000F25B540A8435607F60E0D69B5402843B9
:102CD000D60803F1200545F826001868560003259C
:102CE000B540A8430D7905F003055600B5402843CB
:102CF00018604D68012D08D04D68022D05D04D6833
:102D0000112D02D04D68122D13D19868560003255D
:102D1000B540A8435600CD68B54028439860586830
:102D200001259540A8430D79C5F30015954028432A
:102D30005860D86856000325B540A84356008D68F2
:102D4000B5402843D8604D6805F08055B5F1805FE7
:102D500077D100BF3E4DAD6945F001053C4EB561F0
:102D60003546AD6905F00105009500BF00BF4FEA8B
:102D7000B635960855F8260095072E0F0F25B54055
:102D8000A843B3F1904F02D100251FE059E0314D27
:102D9000AB4201D1012519E02F4DAB4201D10225F3
:102DA00014E02E4DAB4201D103250FE02C4DAB4278
:102DB00001D104250AE02B4DAB4201D1052505E0E8
:102DC000294DAB4201D1062500E007259607360FB5
:102DD000B5402843254D960845F82600244D28681F
:102DE000A0434D6805F48035B5F5803F00D1204300
:102DF0001F4D28602D1D2868A0434D6805F400353F
:102E0000B5F5003F00D12043194D2D1D28602D1D23
:102E10002868A0434D6805F48015B5F5801F00D1E2
:102E20002043134D083528602D1D2868A0434D68A8
:102E300005F40015B5F5001F00D120430C4D0C35ED
:102E40002860521C0D68D540002D7FF425AF78BD59
:102E5000001002400004004800080048000C004830
:102E60000010004800140048001800480800014005
:102E7000000401400AB1816100E0816270470000F6
:102E80000148006870470000000000200248006808
:102E9000401C0149086070470000002010B5084838
:102EA000006840F0100006490860032000F098F820
:102EB000002000F007F800F019F8002010BD000015
:102EC0000020024070B50446074800684FF47A714C
:102ED000B0FBF1F5284602F0A8F900222146501E69
:102EE00000F040F8002070BDC800002008B500BF09
:102EF0001B48806940F001001949886108468069D3
:102F000000F00100009000BF00BF032000F068F84F
:102F1000002211466FF00B0000F024F80022114649
:102F20006FF00A0000F01EF8002211466FF0090051
:102F300000F018F800221146501F00F013F800228C
:102F40001146101F00F00EF800221146901E00F0EE
:102F500009F800221146501E00F004F808BD0000D8
:102F6000001002402DE9F05F80460D46164600270E
:102F700002F086FA074639462A46334601F0070032
:102F8000C0F1070ABAF1040F02D94FF0040A01E0B8
:102F9000C0F1070AD14600F1040ABAF1070F02D2C4
:102FA0004FF0000A01E0A0F1030AD4464FF0010AF5
:102FB0000AFA09FAAAF1010A0AEA020A0AFA0CFA5A
:102FC0004FF0010B0BFA0CFBABF1010B0BEA030BFF
:102FD0004AEA0B042146404602F05AFABDE8F09F47
:102FE00000BF00F00702064B19684FF6FF031940B7
:102FF000044B0B4343EA0221014B196000BF7047A9
:103000000CED00E00000FA0570B504460D46C5EB76
:10301000C50304F1280101EB83010A692946D4F8AC
:10302000A40303F0D9FE70BD70B504460D46C5EB90
:10303000C50304F5E67101EB83010A692946D4F85A
:10304000A40303F036FF70BD70B502460B4603F0D3
:103050008000802808D103F07F00C0EBC00402F19B
:10306000280000EB840105E0C3EBC30402F5E67021
:1030700000EB84010020887003F07F000870C3F328
:10308000C010487000BF92F87003012801D10220DF
:1030900070BD012082F8700300BF487870B30C78CF
:1030A0006400106830F8140000F0400078B10C782B
:1030B0006400106830F8140048F68F74204048F21D
:1030C000C00420430D786D00146824F815000D78B5
:1030D0006D00146834F8154048F6BF7504EA050021
:1030E00080F0100080F0200040F4004444F08004A0
:1030F0000E787600156825F816402EE00C786400EE
:10310000106830F8140000F4804078B10C78640046
:10311000106830F8140048F68F7420404CF2800498
:1031200020430D786D00146824F815000D786D00AB
:10313000146834F815404BF68F7504EA050080F4E6
:10314000805080F4005040F4004444F080040E7835
:103150007600156825F8164000BF00BF002082F8F1
:10316000700300BF00BF93E72DE9F04104460D4610
:10317000002705F08000802808D105F07F00C0EB13
:10318000C00604F1280000EB860107E005F07F008F
:10319000C0EBC00604F5E67000EB860105F07F0089
:1031A000087005F08000C0094870CA60CB7000BF8D
:1031B00094F87003012802D10220BDE8F0810120BB
:1031C00084F8700300BFC87830B1012838D00228D5
:1031D00014D0032846D121E00E787600206830F81C
:1031E000160048F68F16304040F4007691F800C083
:1031F0004FEA4C0C206820F81C6033E00E78760013
:10320000206830F8160048F68F16304091F800C05C
:103210004FEA4C0C266826F81C0023E00E78760056
:10322000206830F8160048F68F16304040F4C0662B
:1032300091F800C04FEA4C0C206820F81C6011E0A7
:103240000E787600206830F8160048F68F16304069
:1032500040F4806691F800C04FEA4C0C206820F8DA
:103260001C6000BF00BF0E787600206830F81600A2
:1032700048F68F76304048F2800630430E7830436F
:1032800091F800C04FEA4C0C266826F81C00887A9A
:1032900000287DD14878E8B388884010460020682F
:1032A000B0F850C008780CEBC00C206800F58060C6
:1032B0002CF800600E787600206830F8160000F0D8
:1032C000400088B10E787600206830F8160048F685
:1032D0008F76304048F2C006304391F800C04FEA84
:1032E0004C0C266826F81C0091F800C04FEA4C0CE4
:1032F000266836F81C6048F6BF7C06EA0C0080F0B1
:10330000200040F4004646F0800691F800804FEA25
:10331000480800E004E0D4F800C02CF81860A7E1E9
:10332000888840104FEA400C2068B0F85060087858
:1033300006EBC000001D266806F5806620F806C072
:103340002068B0F850C008780CEBC000801DD4F89D
:1033500000C00CF5806C00EB0C06D1F80CC0BCF181
:103360003E0F16D9D1F80CC0CCF34F1091F80CC019
:103370000CF01F0CBCF1000F03D1A0F1010C1FFADF
:103380008CF04FF4004C4CEA802CA6F800C015E0FD
:103390004AE0D1F80CC0CCF34F0091F80CC00CF00F
:1033A000010CBCF1000F03D000F1010C1FFA8CF0EE
:1033B0004FF6FF7C0CEA802CA6F800C00E78760051
:1033C000206830F8160000F4804088B10E7876004E
:1033D000206830F8160048F68F7630404CF28006B0
:1033E000304391F800C04FEA4C0C266826F81C00C8
:1033F00091F800C04FEA4C0C266836F81C604BF67A
:103400008F7C06EA0C0080F4805080F4005040F479
:10341000004646F0800691F800804FEA4808D4F84C
:1034200000C02CF8186023E10E787600206830F890
:10343000160040F4807048F68F76304048F28006DF
:10344000304391F800C04FEA4C0C266826F81C0067
:10345000C888401046002068B0F850C008780CEBCF
:10346000C00C206800F580602CF8006008894010CE
:103470004FEA400C2068B0F85060087806EBC000B6
:10348000001D266806F5806620F806C048780028EA
:1034900079D10E787600206830F8160000F480406C
:1034A00088B10E787600206830F8160048F68F76DE
:1034B00030404CF28006304391F800C04FEA4C0C8B
:1034C000266826F81C000E787600206830F8160072
:1034D00000F0400088B10E787600206830F81600C1
:1034E00048F68F76304048F2C006304391F800C06D
:1034F0004FEA4C0C266826F81C000E7876002068EF
:1035000030F8160048F68F76304048F2C006304357
:1035100091F800C04FEA4C0C266826F81C0091F880
:1035200000C04FEA4C0C266836F81C604BF68F7CC6
:1035300006EA0C0080F4805080F4005040F400460D
:1035400046F0800691F800804FEA4808D4F800C0A1
:103550002CF8186091F800C04FEA4C0C266836F839
:103560001C6048F6BF7C06EA0C0040F4004646F0BA
:10357000800691F800804FEA4808D4F800C02CF883
:10358000186075E0FFE70E787600206830F81600C6
:1035900000F4804088B10E787600206830F816007C
:1035A00048F68F7630404CF28006304391F800C0E8
:1035B0004FEA4C0C266826F81C000E78760020682E
:1035C00030F8160000F0400088B10E7876002068D0
:1035D00030F8160048F68F76304048F2C006304387
:1035E00091F800C04FEA4C0C266826F81C000E78B3
:1035F0007600206830F8160048F68F7630404CF29E
:103600008006304391F800C04FEA4C0C266826F83B
:103610001C0091F800C04FEA4C0C266836F81C607C
:1036200048F6BF7C06EA0C0040F4004646F08006EF
:1036300091F800804FEA4808D4F800C02CF81860D0
:1036400091F800C04FEA4C0C266836F81C604BF627
:103650008F7C06EA0C0040F4004646F0800691F8A4
:1036600000804FEA4808D4F800C02CF8186000BF6A
:1036700000BF002084F8700300BF38469DE5F0B518
:1036800004460D4605F07F00C0EBC00604F5E67069
:1036900000EB86010A614B6100208861487005F0EB
:1036A0007F00087000BF94F87003012801D1022048
:1036B000F0BD012084F8700300BFCE684869B042B5
:1036C00004D9CB684869C01A486102E04B69002000
:1036D0004861887A30BB2068B0F85070087807EBF2
:1036E000C000801D276807F58067C6193E2B0CD9DE
:1036F000C3F34F1003F01F070FB9471EB8B24FF4C2
:10370000004747EA802737800BE0C3F34F0003F000
:1037100001070FB1471CB8B24FF6FF7707EA8027C1
:10372000378036E0487830BB2068B0F850700878B1
:1037300007EBC000801D276807F58067C6193E2B80
:103740000CD9C3F34F1003F01F070FB9471EB8B2CF
:103750004FF4004747EA802737800BE0C3F34F0060
:1037600003F001070FB1471CB8B24FF6FF7707EA25
:10377000802737800DE0487801280AD12068B0F80A
:103780005060087806EBC006B61D206800F5806022
:1037900033520F787F00266836F817604BF68F7724
:1037A00006EA070080F4805080F4005040F40046A0
:1037B00046F0800691F800C04FEA4C0C276827F8C5
:1037C0001C6000BF002084F8700300BF00BF6FE7DB
:1037D00070B502460B4600BF92F87003012801D174
:1037E000022070BD012082F8700300BF03F080004A
:1037F000802808D103F07F00C0EBC00402F128004C
:1038000000EB840105E0C3EBC30402F5E67000EBB6
:1038100084010120887003F07F000870C3F3C0109A
:1038200048700878B0B90D786D00146834F8154008
:103830004BF6BF7504EA050080F4805080F010005C
:1038400040F4004444F080040E787600156825F8B2
:1038500016402BE04878A0B10D786D00146834F85C
:10386000154048F6BF7504EA050080F0100040F4EA
:10387000004444F080040E787600156825F8164060
:1038800014E00D786D00146834F815404BF68F7510
:1038900004EA050080F4805040F4004444F08004C1
:1038A0000E787600156825F8164000BF00BF00208E
:1038B00082F8700300BF00BF93E72DE9F04705468B
:1038C0000F4690461E464FF0000907F07F00C0EB00
:1038D000C00105F1280000EB8104C4F81080666186
:1038E0000020A0610120607007F07F00207000BF01
:1038F00095F87003012802D10220BDE8F08701206D
:1039000085F8700300BFE1686069884204D9E66801
:103910006069801B606102E0666900206061A07AD6
:1039200088B9B3B2A2882169286801F0ECFF286841
:10393000B0F85010207801EBC000801C296801F518
:103940008061465238E021784900286830F811003B
:1039500000F0400010B1B4F8089001E0B4F806900F
:10396000B3B221694A46286801F0CDFF607880B97A
:1039700021784900286830F8110048F68F71084016
:1039800048F2C001084322785200296821F8120049
:1039900012E0607801280FD121784900286830F8BA
:1039A000110048F68F7108404CF2800108432278DC
:1039B0005200296821F8120022785200296831F853
:1039C000121048F6BF7201EA020080F0100080F089
:1039D000200040F4004141F0800223785B00296818
:1039E00021F8132000BF002085F8700300BF00BF3E
:1039F00083E770B5044600252068B0F8440000F461
:103A00000040B0F5004F02D1204601F055FD20687E
:103A1000B0F8440000F48060B0F5806F0ED12068EB
:103A2000B0F8440020F480602168A1F844002046EA
:103A300000F091F80021204600F0B0F82068B0F8BE
:103A4000440000F48040B0F5804F07D12068B0F802
:103A5000440020F480402168A1F844002068B0F8B8
:103A6000440000F40050B0F5005F07D12068B0F8C2
:103A7000440020F400502168A1F844002068B0F808
:103A8000440000F48050B0F5805F17D12068B0F892
:103A9000400020F004002168A1F840004FF43D45AB
:103AA0002068A0F84050204600F06AF82068B0F87E
:103AB000440020F480502168A1F844002068B0F848
:103AC000440000F40060B0F5006F20D12068B0F829
:103AD000440020F400602168A1F844002068B0F898
:103AE000400040F008002168A1F840002068B0F8CC
:103AF000400040F004002168A1F840002068B0F8C0
:103B00004400C0F3003010B9204600F06BF8206884
:103B1000B0F8440000F40070B0F5007F0AD12068CE
:103B2000B0F8440020F400702168A1F84400204659
:103B300000F02DF82068B0F8440000F48070B0F573
:103B4000807F07D12068B0F8440020F4807021689D
:103B5000A1F8440070BD70B504460125A068022894
:103B600001D100BF01E0012500BF00BF2946D4F804
:103B7000A40303F057FAD4F8A40303F019FA70BDB4
:103B800010B50446D4F8A40303F034FA10BD10B500
:103B90000446D4F8A40303F034FA10BD024600BF73
:103BA00092F87003012801D102207047012082F8A9
:103BB000700300BF21B980201368A3F84C0001E016
:103BC00082F8241000BF002082F8700300BF00BFFD
:103BD000EBE710B5044604F55D71D4F8A40303F0D7
:103BE0002FFA10BD10B50446D4F8A40303F069FA07
:103BF000A06928B10348006840F006000149086048
:103C000010BD000010ED00E0F8B5044600260025C8
:103C1000206800F48030B0F5803F75D10027E2487D
:103C2000C06900F0805070B900BFDF48C06940F043
:103C30008050DD49C8610846C06900F0805000909E
:103C400000BF00BF0127D948006800F48070B0B9F8
:103C5000D648006840F48070D4490860FFF710F936
:103C6000064606E0FFF70CF9801B642801D9032003
:103C7000F8BDCE48006800F480700028F2D0CA4831
:103C8000006A00F44075002D6CD0A08800F44070EC
:103C9000A84267D0C448006A20F44075012001049E
:103CA00091FAA1F1B1FA81F1C14A02EB8101C1F8A7
:103CB000000400204FF4803191FAA1F1B1FA81F1B2
:103CC00002EB8101C1F80004B748056205F001006C
:103CD000B8B3FFF7D5F8064608E0FFF7D1F8801B28
:103CE00041F28831884201D90320C1E740200221F6
:103CF00091FAA1F1B1FA81F108430121B1EB601F02
:103D000003D1A94800681FE03CE04020022191FA5D
:103D1000A1F1B1FA81F108430221B1EB601F02D198
:103D2000A148006A10E04020022191FAA1F1B1FA05
:103D300081F108430421B1EB601F03D19A48406828
:103D400002E00FE09848406A4021022292FAA2F273
:103D5000B2FA82F2114301F01F02012191400840A2
:103D60000028BAD09048006A20F440706168084387
:103D70008D490862012F04D10846C06920F08050A7
:103D8000C86100BF207800F0010038B18648006BA0
:103D900020F00300A168084383490863207800F0FD
:103DA0000200022807D18048006B20F44030E1680F
:103DB00008437D490863207800F00400042807D1F7
:103DC0007948006B20F44020216908437649086354
:103DD000207800F02000202807D17348006B20F0E5
:103DE0001000E169084370490863206800F400305E
:103DF000B0F5003F07D16C48406820F48000616D49
:103E0000084369494860207800F04000402807D105
:103E10006548006B20F02000216A0843624908636E
:103E2000206800F48020B0F5802F07D15E48006B39
:103E300020F04000616A08435B490863207800F085
:103E40000800082807D15848006B20F44010616929
:103E5000084355490863207800F01000102807D166
:103E60005148006B20F44000A16908434E490863A3
:103E7000208800F40070B0F5007F07D14A48406800
:103E800020F40000216B084347494860207800F087
:103E90008000802807D14448C06A20F4F870A16AE5
:103EA00008434149C862208800F48070B0F5807FE3
:103EB00007D13D48C06A20F47850E16A08433A4986
:103EC000C862208800F48050B0F5805F07D1364882
:103ED000006B20F48070616B0843334908632088CD
:103EE00000F40050B0F5005F07D12F48006B20F4BC
:103EF0000070216C08432C490863206800F480108E
:103F0000B0F5801F07D12848006B20F08070A16BAE
:103F1000084325490863206800F40010B0F5001F2D
:103F200007D12148006B20F00070E16B08431E4967
:103F30000863206800F48000B0F5800F07D11A48AC
:103F4000006B20F48060616C0843174908632068A7
:103F500000F40000B0F5000F07D11348006B20F407
:103F60000060A16C084310490863206800F080706D
:103F7000B0F1807F07D10C48006B20F40050E16C59
:103F8000084309490863206800F00070B0F1007F21
:103F900007D10548006B20F40040216D0843024919
:103FA0000863002064E6000000100240007000403A
:103FB0000000424270B504460D460026B448006831
:103FC00000F00700A8420ED2B148006820F00700B8
:103FD0002843AF4908600846006800F00700A8427F
:103FE00001D0012070BD207800F00200022807D126
:103FF000A848406820F0F000A1680843A54948603F
:10400000207800F0010000287CD0606801283BD1B6
:104010002020010391FAA1F1B1FA81F108430121B5
:10402000B1EB601F02D19B4800681DE02020010316
:1040300091FAA1F1B1FA81F108430221B1EB601FBD
:1040400002D19448006A0FE02020010391FAA1F107
:10405000B1FA81F108430421B1EB601F02D18D4810
:10406000406801E08B48406A20210A0392FAA2F2DC
:10407000B2FA82F2114301F01F020121914008407F
:1040800000287CD10120ADE7606802283BD12020C8
:10409000010591FAA1F1B1FA81F108430121B1EBD7
:1040A000601F02D17B4800681DE02020010591FAC5
:1040B000A1F1B1FA81F108430221B1EB601F02D1F5
:1040C0007448006A0FE02020010591FAA1F1B1FACD
:1040D00081F108430421B1EB601F02D16D484068B3
:1040E00001E06C48406A20210A0592FAA2F2B2FA75
:1040F00082F2114301F01F02012191400840E8BB08
:1041000001206FE77EE02020022191FAA1F1B1FAAF
:1041100081F108430121B1EB601F02D15D480068C5
:104120001DE02020022191FAA1F1B1FA81F10843AA
:104130000221B1EB601F02D15648006A0FE0202037
:10414000022191FAA1F1B1FA81F108430421B1EB06
:10415000601F02D14F48406801E04E48406A20216C
:10416000022292FAA2F2B2FA82F2114301F01F0285
:1041700001219140084008B9012033E7FFE7454895
:10418000406820F003006168084342494860FEF738
:1041900077FE06466068012810D108E0FEF770FE41
:1041A000801B41F28831884201D903201AE739483F
:1041B000406800F00C000428F0D123E06068022879
:1041C00010D108E0FEF75CFE801B41F28831884286
:1041D00001D9032006E72F48406800F00C000828AA
:1041E000F0D10FE008E0FEF74BFE801B41F2883172
:1041F000884201D90320F5E62648406800F00C000B
:104200000028F0D12248006800F00700A8420ED92B
:104210001F48006820F0070028431D490860084631
:10422000006800F00700A84201D00120DAE62078FB
:1042300000F00400042807D11648406820F4E0602C
:10424000E168084313494860207800F00800082816
:1042500008D11048406820F46050216940EAC1004C
:104260000C49486000F022F80A49496801F0F00161
:10427000F02292FAA2F2B2FA82F2D140064A515CDE
:10428000C840064908600020FEF71CFE0020A9E691
:10429000002002400010024098960008C80000204C
:1042A0000148006870470000C800002070B5002178
:1042B00000220024002300201D4D696801F00C0538
:1042C0007DB3042D02D0082D2CD101E019482CE03B
:1042D00001F470154FF4701696FAA6F6B6FA86F643
:1042E000F540154E735D124DED6A05F00F050F2672
:1042F00096FAA6F6B6FA86F6F540104E725D01F40F
:104300008035B5F5803F05D10A4DB5FBF2F505FBCB
:1043100003F404E00A4DB5FBF2F505FB03F4204677
:1043200003E000E000BF064800BF00BF70BD000012
:1043300000100240001BB700548C0008648C000879
:1043400000127A00F8B504460025207800F001003C
:1043500000287BD0FD48406800F00C0004280CD0F9
:10436000FA48406800F00C00082845D1F74840683A
:1043700000F4C030B0F5803F3ED12020010391FA17
:10438000A1F1B1FA81F108430121B1EB601F02D123
:10439000EE4800681DE02020010391FAA1F1B1FA76
:1043A00081F108430221B1EB601F02D1E748006AA6
:1043B0000FE02020010391FAA1F1B1FA81F1084345
:1043C0000421B1EB601F02D1E048406801E0DF4802
:1043D000406A20210A0392FAA2F2B2FA82F2114351
:1043E00001F01F020121914008400028B1D060680F
:1043F00000282BD10120F8BD00BF6068B0F5803FD8
:1044000006D1D248006840F48030D049086029E0E5
:10441000606858B9CD48006820F48030CB49086006
:104420000846006820F4802008601BE06068B0F552
:10443000A02F0CD1C548006840F48020C349086013
:104440000846006840F4803008600BE099E0BF48FF
:10445000006820F48030BD4908600846006820F4F8
:104460008020086000BF6068A0B3FEF709FD054624
:1044700006E0FEF705FD401B642801D90320BAE7DA
:104480002020010391FAA1F1B1FA81F10843012141
:10449000B1EB601F02D1AD4800681EE0202001038F
:1044A00091FAA1F1B1FA81F108430221B1EB601F49
:1044B00002D1A648006A10E02020010391FAA1F180
:1044C000B1FA81F108430421B1EB601F03D19F4889
:1044D000406802E010E09D48406A20210A0392FAF9
:1044E000A2F2B2FA82F2114301F01F0201219140BF
:1044F00008400028BDD044E0FEF7C2FC054606E0B7
:10450000FEF7BEFC401B642801D9032073E720207E
:10451000010391FAA1F1B1FA81F108430121B1EB54
:10452000601F02D1894800681DE02020010391FA34
:10453000A1F1B1FA81F108430221B1EB601F02D170
:104540008248006A0FE02020010391FAA1F1B1FA3C
:1045500081F108430421B1EB601F02D17B48406820
:1045600001E07A48406A20210A0392FAA2F2B2FAE4
:1045700082F2114301F01F020121914008400028FE
:10458000BED1207800F0020002285DD16F4840685B
:1045900000F00C0060B16D48406800F00C00082885
:1045A00053D16A48406800F4C030B0F5004F4CD198
:1045B0002020022191FAA1F1B1FA81F108430121F1
:1045C000B1EB601F02D1614800681DE0202002218C
:1045D00091FAA1F1B1FA81F108430221B1EB601F18
:1045E00002D15A48006A0FE02020022191FAA1F17D
:1045F000B1FA81F108430421B1EB601F02D15348A5
:10460000406801E05148406A2021022292FAA2F259
:10461000B2FA82F2114301F01F02012191400840D9
:1046200020B1E068012801D00120E4E64748006895
:1046300020F0F800F82292FAA2F2B2FA82F221698E
:104640009140084341490860B0E0E068E0B30120D0
:1046500090FAA0F1B1FA81F13D4A42F82100FEF74B
:104660000FFC054606E0FEF70BFC401B022801D9B3
:104670000320C0E62020022191FAA1F1B1FA81F1D4
:1046800008430121B1EB601F02D1304800681EE0F1
:104690002020022191FAA1F1B1FA81F1084302210F
:1046A000B1EB601F02D12948006A10E020200221EE
:1046B00091FAA1F1B1FA81F108430421B1EB601F35
:1046C00003D12248406802E01EE02048406A2021D1
:1046D000022292FAA2F2B2FA82F2114301F01F0210
:1046E0000121914008400028BDD01848006820F002
:1046F000F800F82292FAA2F2B2FA82F2216991400D
:1047000008431249086051E00020012191FAA1F10B
:10471000B1FA81F10E4A42F82100FEF7B1FB0546DD
:1047200006E0FEF7ADFB401B022801D9032062E63C
:104730002020022191FAA1F1B1FA81F1084301216F
:10474000B1EB601F06D10148006821E00010024073
:10475000000042422020022191FAA1F1B1FA81F138
:1047600008430221B1EB601F02D1F848006A0FE054
:104770002020022191FAA1F1B1FA81F1084304212C
:10478000B1EB601F02D1F148406801E0EF48406A98
:104790002021022292FAA2F2B2FA82F2114301F02F
:1047A0001F020121914008400028BAD1207800F072
:1047B0000800082851D1606980B3012090FAA0F167
:1047C000B1FA81F1E24A02EB8101C1F88004FEF7FF
:1047D00057FB054606E0FEF753FB401B022801D9B4
:1047E000032008E66020022191FAA1F1B1FA81F1DB
:1047F00008430121B1EB601F02D1D44800681EE0DC
:104800006020022191FAA1F1B1FA81F1084302215D
:10481000B1EB601F03D1CD48006A10E01EE06020BC
:10482000022191FAA1F1B1FA81F108430421B1EB1F
:10483000601F02D1C548406801E0C448406A602159
:10484000022292FAA2F2B2FA82F2114301F01F029E
:104850000121914008400028BDD04FE000210120F7
:1048600090FAA0F0B0FA80F0B94A02EB8000C0F8EC
:104870008014FEF705FB054606E0FEF701FB401B32
:10488000022801D90320B6E56020022191FAA1F1A6
:10489000B1FA81F108430121B1EB601F02D1AB48AD
:1048A00000681DE06020022191FAA1F1B1FA81F1C6
:1048B00008430221B1EB601F02D1A448006A0FE057
:1048C0006020022191FAA1F1B1FA81F1084304219B
:1048D000B1EB601F02D19D48406801E09B48406AEF
:1048E0006021022292FAA2F2B2FA82F2114301F09E
:1048F0001F020121914008400028BED1207800F01D
:104900000400042873D100269048C06900F080504C
:1049100070B900BF8D48C06940F080508B49C861B4
:104920000846C06900F08050009000BF00BF01261B
:104930008848006800F48070B0B98648006840F488
:10494000807084490860FEF79BFA054606E0FEF792
:1049500097FA401B642801D903204CE57D48006884
:1049600000F480700028F2D000BFA068012806D1B2
:104970007648006A40F001007449086227E0A068A8
:1049800058B97248006A20F0010070490862084670
:10499000006A20F00400086219E0A06805280BD125
:1049A0006A48006A40F00400684908620846006AE4
:1049B00040F0010008620AE06448006A20F001004B
:1049C000624908620846006A20F00400086200BFDD
:1049D000A068B8B3FEF754FA054609E0FEF750FAAE
:1049E000401B41F28831884202D9032003E58BE065
:1049F0004020022191FAA1F1B1FA81F1084301218D
:104A0000B1EB601F02D1514800681EE04020022136
:104A100091FAA1F1B1FA81F108430221B1EB601FD3
:104A200002D14A48006A10E04020022191FAA1F127
:104A3000B1FA81F108430421B1EB601F03D143486F
:104A4000406802E010E04148406A4021022292FAA8
:104A5000A2F2B2FA82F2114301F01F020121914049
:104A600008400028BAD046E0FEF70AFA054608E0FA
:104A7000FEF706FA401B41F28831884201D9032033
:104A8000B9E44020022191FAA1F1B1FA81F1084381
:104A90000121B1EB601F02D12C4800681DE04020CD
:104AA000022191FAA1F1B1FA81F108430221B1EB9F
:104AB000601F02D12548006A0FE04020022191FAD0
:104AC000A1F1B1FA81F108430421B1EB601F02D1D9
:104AD0001E48406801E01D48406A4021022292FAC7
:104AE000A2F2B2FA82F2114301F01F0201219140B9
:104AF00008400028BCD1012E05D11448C06920F01F
:104B000080501249C86100BFA06900287ED00F48BC
:104B1000406800F00C00082879D0A069022877D1FD
:104B200000204FF0807191FAA1F1B1FA81F1084AA9
:104B300042F82100FEF7A4F905460DE0FEF7A0F9C2
:104B4000401B022808D9032055E400000010024051
:104B500000004242007000402020010591FAA1F1BE
:104B6000B1FA81F108430121B1EB601F02D1754810
:104B700000681DE02020010591FAA1F1B1FA81F150
:104B800008430221B1EB601F02D16E48006A0FE0BA
:104B90002020010591FAA1F1B1FA81F10843042125
:104BA000B1EB601F02D16748406801E06548406A88
:104BB00020210A0592FAA2F2B2FA82F2114301F020
:104BC0001F020121914008400028B7D100BF5D4875
:104BD000C06A20F00F00616A08435A49C862D4E9EC
:104BE000071008435749496821F47611084355498D
:104BF000486000BF0120010691FAA1F1B1FA81F1EC
:104C0000514A42F82100FEF73BF902E097E094E0B8
:104C100043E0054606E0FEF733F9401B022801D9C0
:104C200003202CE42020010591FAA1F1B1FA81F1D1
:104C300008430121B1EB601F02D1424800681DE02A
:104C40002020010591FAA1F1B1FA81F10843022176
:104C5000B1EB601F02D13B48006A0FE02020010544
:104C600091FAA1F1B1FA81F108430421B1EB601F7F
:104C700002D13448406801E03248406A20210A05E8
:104C800092FAA2F2B2FA82F2114301F01F0201215C
:104C9000914008400028BED051E000204FF08071C4
:104CA00091FAA1F1B1FA81F1274A42F82100FEF709
:104CB000E7F8054606E0FEF7E3F8401B022801D9B5
:104CC000032023E42020010591FAA1F1B1FA81F13A
:104CD00008430121B1EB601F02D11A4800681DE0B2
:104CE0002020010591FAA1F1B1FA81F108430221D6
:104CF000B1EB601F02D11348006A0FE020200105CC
:104D000091FAA1F1B1FA81F108430421B1EB601FDE
:104D100002D10C48406801E00A48406A20210A0597
:104D200092FAA2F2B2FA82F2114301F01F020121BB
:104D3000914008400028BED101E0012075E4002028
:104D400073E40000001002400000424270B50446C7
:104D50000CB9012070BD94F85D0028B9002084F8DA
:104D60005C00204600F05AF8022084F85D002068BC
:104D7000006820F0400021680860E068B0F5E06F4E
:104D800001D9002501E04FF48055E068B0F5706F5F
:104D900005D0E068B0F5E06F01D00021A162206B82
:104DA00040B9E068B0F5E06F02D90221216301E06B
:104DB00001212163D4E901010843216908436169A4
:104DC0000843218B01F400710843E1690843216A1B
:104DD0000843A16A084321680860206B022805D1B6
:104DE0002068006840F40060216808600421A06920
:104DF00001EA1040616A0843616B0843E1680843B7
:104E00002843216848602168E06A08610020206624
:104E1000012084F85D0000209CE7000010B586B0FA
:104E200004462249206888421DD100BF204880697D
:104E300040F480501E4988610846806900F4805023
:104E4000009000BF00BFE0200190022002900020EF
:104E50000390032004900520059001A94FF0904095
:104E6000FDF714FF20E01349206888421CD100BFE1
:104E70000F48C06940F400400D49C8610846C06948
:104E800000F40040009000BF00BF4FF4E0500190DC
:104E90000220029000200390032004900620059039
:104EA00001A90548FDF7F2FE06B010BD0030014033
:104EB00000100240003C0040000800482DE9F84F77
:104EC00004460F4690461D460A9EFDF7D9FF8146CF
:104ED0004FF0000A00BF94F85C00012802D10220C4
:104EE000BDE8F88F012084F85C0000BF94F85D00F5
:104EF000012802D04FF0020A78E11FB1B8F1000F8B
:104F000000D015B94FF0010A70E1052084F85D006A
:104F100000202066C4F84080A4F84650A4F844500D
:104F2000A763E587A587A06AB0F5005F0ED100BF33
:104F3000206800684DF6FF7108402168086020680D
:104F4000006840F400502168086000BFE068B0F5D8
:104F5000E06F03D8B4F84600012806DD20684068F9
:104F600020F480502168486005E02068406840F4E3
:104F70008050216848602068006800F040004028A8
:104F800005D02068006840F0400021680860E068B3
:104F9000B0F5E06F58D94FE0E08F00282CDD206895
:104FA000806800F00200022826D1A06B00882168EA
:104FB000C860A06B801CA063E08F401EE087E08F7C
:104FC000D0B9A06AB0F5005F16D12068006800F083
:104FD000040058B92068406800F00800082805D18E
:104FE0002068006840F4007021680860206800684C
:104FF00040F4805021680860B4F84600002810DDB5
:105000002068806800F0010058B12068C068216CF9
:105010000880206C801C2064B4F84600401EA4F870
:105020004600701C40B1FDF72BFFA0EB0900B04219
:1050300002D34FF0030AD9E0E08F0028ACDCB4F8CB
:1050400046000028A8DC7EE076E0E08F002839DD0D
:105050002068806800F00200022833D1E08F012828
:105060000ADDA06B00882168C860A06B801CA0636B
:10507000E08F801EE08708E0A16B481CA0630878E1
:1050800021680873E08F401EE087E08FD0B9A06AE6
:10509000B0F5005F16D12068006800F0040058B930
:1050A0002068406800F00800082805D120680068E2
:1050B00040F40070216808602068006840F4805067
:1050C00021680860B4F8460000282ADD206880685E
:1050D00000F0010028B3B4F84600012816DD20686E
:1050E000C068216C0880206C801C2064B4F84600E5
:1050F000801EA4F84600B4F84600012811DC2068A0
:10510000406840F48050216848600AE02068017BD4
:10511000226C501C20641170B4F84600401EA4F8A4
:105120004600701C40B1FDF7ABFEA0EB0900B04299
:1051300002D34FF0030A59E0E08F002885DCB4F871
:105140004600002881DCA06AB0F5005F33D1334609
:1051500001221146204601F0C1FB30B1206E40F023
:10516000020020664FF0030A40E0E068B0F5706F7F
:1051700006D12068C06880B20090BDF800001AE037
:105180002068007B0090BDF80000206B022812D13F
:10519000334601221146204601F0A0FB30B1206EBB
:1051A00040F0020020664FF0030A1FE02068007BF9
:1051B0000090BDF8000020688068C0F3001048B17E
:1051C000206E40F0020020664FF6EF702168886084
:1051D0004FF0010A3146204601F006FB08B12020BD
:1051E0002066206E08B14FF0010A00BF012084F84C
:1051F0005D0000BF002084F85C0000BF50466FE6F1
:10520000042808D14FF0E021096941F004014FF072
:10521000E022116107E04FF0E021096921F004016B
:105220004FF0E02211617047704770B50446254683
:10523000681EB0F1807F01D301200FE0681E4FF09F
:10524000E02148610F214FF0FF3000F021F90020EC
:105250004FF0E021886107200861002070BD10B583
:10526000FFF7E2FF10BD70477047704710B5044666
:1052700020680069C0F34000D8B12068C068C0F35E
:105280004000B0B16FF00200216808610120207673
:105290002068806900F0030018B12046FFF7E5FFA1
:1052A00005E0204600F0ADF8204600F0ABF8002005
:1052B000207620680069C0F38000D8B12068C068FB
:1052C000C0F38000B0B16FF00400216808610220D3
:1052D00020762068806900F4407018B12046FFF7FE
:1052E000C4FF05E0204600F08CF8204600F08AF864
:1052F0000020207620680069C0F3C000D8B1206883
:10530000C068C0F3C000B0B16FF008002168086148
:10531000042020762068C06900F0030018B1204600
:10532000FFF7A3FF05E0204600F06BF8204600F0F1
:1053300069F80020207620680069C0F30010D8B119
:105340002068C068C0F30010B0B16FF01000216891
:105350000861082020762068C06900F4407018B108
:105360002046FFF782FF05E0204600F04AF820467D
:1053700000F048F8002020762068006900F0010065
:1053800058B12068C06800F0010030B16FF0010032
:1053900021680861204600F037F820680069C0F3F2
:1053A000C01058B12068C068C0F3C01030B16FF0B1
:1053B0008000216808612046FFF755FF20680069DA
:1053C000C0F3801058B12068C068C0F3801030B1BD
:1053D0006FF0400021680861204600F02FF8206837
:1053E0000069C0F3401058B12068C068C0F3401095
:1053F00030B16FF02000216808612046FFF734FFCC
:1054000010BD70477047000010B50446084800788A
:1054100040B10848006828B10548007810B1054837
:105420000068804704480068401C0349086010BDBC
:105430000C0000200400002008000020704700BF7E
:10544000FEE7000070B50646FCF764FC054675B142
:10545000074800EBC51404202080607920F00F007D
:1054600060710120E080268103200249485570BD0B
:10547000180800205000002000BFFEE77047000021
:1054800002480068C0F30220704700000CED00E005
:1054900010B5002807DA0A07140E054A00F00F03BA
:1054A0001B1FD45403E00A07130E024A135410BD05
:1054B00018ED00E000E400E02DE9FC41054600277E
:1054C0000020009003E2BDF8040000F00F06002E5B
:1054D0007ED1BDF8040000F0100080BB2868008871
:1054E00048F60F7108402968088005F128042868EB
:1054F000B0F85010207801EBC000801C296801F53D
:105500008061405AC0F30900A061A1692069084484
:10551000206100212846FDF777FD95F8240000283A
:10552000D0DD60690028CDD195F8240040F08000DE
:105530002968A1F84C00002085F82400C7E1FFE7A6
:1055400005F5E674286800880090BDF8000000F4B6
:10555000006010B32868B0F85010207801EBC0004C
:10556000801D296801F58061405AC0F30900A061DF
:10557000218B8BB2A28805F55D71286800F0B2F925
:1055800028680088C0F30E0048F68F71084029682B
:1055900008802846FEF71DFB99E1BDF8000000F4E5
:1055A000004000288ED028680088C0F30E0048F61E
:1055B0008F710840296808802868B0F8501020785A
:1055C00001EBC000801D296801F58061405A00E0B0
:1055D0004EE0C0F30900A061A06960B1B4F818C042
:1055E0001FFA8CF3A2882169286800F07BF9A16971
:1055F00020690844206100212846FDF715FD286830
:10560000B0F85000801D2A6802F580628118E268B7
:105610003E2A0ED9E268C2F34F10227B02F01F022D
:105620000AB9421E90B24FF4004242EA80220A8038
:105630000DE0E268C2F34F00227B02F001020AB1E2
:10564000421C90B24FF6FF7202EA80220A8029685B
:1056500009884BF68F7201EA020080F4805080F4D2
:10566000005040F4004141F080012A6811802EE191
:105670007100286830F811000090BDF8000000F4B7
:10568000004000287BD07100286830F81100C0F37A
:105690000E0048F68F7108407200296821F8120048
:1056A000C6EBC60105F5E67000EB8104A07AA0B94F
:1056B0002868B0F85010207801EBC000801D2968E0
:1056C00001F58061405AC0F30907EFB3A288216950
:1056D0003B46286800F006F942E021784900286836
:1056E00030F8110000F48040A0B12868B0F85010E4
:1056F000207801EBC000801C296801F58061405AC8
:10570000C0F30907D7B1E28821693B46286800F059
:10571000E9F813E02868B0F85010207801EBC000D9
:10572000801D296801F58061405AC0F309072FB137
:10573000228921693B46286800F0D4F82178490085
:10574000286830F8110000E00AE048F68F71084040
:1057500048F2C001084322785200296821F812005B
:10576000A0693844A061206938442061606910B1A3
:10577000E068B84204D921782846FDF755FC05E0D9
:1057800021782846D4E90423FDF779FFBDF800000D
:1057900000F0800000287DD0C6EBC60105F128008E
:1057A00000EB81047100286830F8110048F60F7191
:1057B00008407200296821F81200A07AC8B9286848
:1057C000B0F85010207801EBC000801C296801F56A
:1057D0008061405AC0F30900A061A069F0B3B4F839
:1057E00018C01FFA8CF3A2882169286800F08BF892
:1057F0004CE021784900286830F8110000F04000A2
:10580000C8B12868B0F85010207801EBC000801CA7
:10581000296801F58061405AC0F30900A061A069C0
:1058200020B3B4F818C01FFA8CF3E2882169286805
:1058300000F069F81AE02868B0F85010207801EB01
:10584000C000801D296801F58061405AC0F309003D
:10585000A061A06950B1B4F818C000E016E01FFACA
:105860008CF322892169286800F04DF821784900DD
:10587000286830F8110048F68F7108404CF280011A
:10588000084322785200296821F812002868B0F8ED
:10589000501000E01BE0207801EBC000801C29685C
:1058A00001F58061405AC0F30900A061A169206937
:1058B00008442061606920B921782846FDF7A4FBDF
:1058C00005E021782846D4E90423FDF7F6FF28688F
:1058D000B0F84400019000F4004000287FF4F3ADDC
:1058E000BDE8FC81F0B55F1C7E10171807F58065D8
:1058F000344605E035F8027B21F8017B491C641E23
:10590000002CF7D1F0BD2DE9F04103F101084FEA79
:10591000680C02EB000808F58067644609E00E7821
:10592000491C91F8008046EA082527F8025B491CCB
:10593000641E002CF3D1BDE8F08108B502224FF4BB
:105940000871684600F0CFFDBDF8000008BD70B5D5
:105950000446204600F01AFD0546284670BD70B585
:1059600006460C461546B4F5805F05DB2A462146FF
:10597000304600F029FD04E0EAB22146304600F04E
:10598000B2FD70BD70B506460C461546B4F5805F95
:1059900005DB2A462146304600F060FE04E0EAB20C
:1059A0002146304600F0E9FE70BD000010B502F05F
:1059B00061F800200449086004490860044908604F
:1059C0000449086010BD00002400002028000020C9
:1059D0002C000020300000207047000010B5074860
:1059E000028807494FF48850FCF7FCFB0448007814
:1059F00000F001000349887010BD00006200002023
:105A00005B000020580000202DE9F04106460F46BB
:105A10009046FCF77FF90546B5B10C4800EBC5147C
:105A20000A202080607920F00F00C01C60714FF4C4
:105A30000050E080A4F80960E77280202072C4F86A
:105A40000C80032002494855BDE8F0811808002069
:105A5000500000202DE9FE4F564EB6F80900029086
:105A6000F07A0190029800F0B7F80FFA80FABAF1D4
:105A7000000F71DB5046019900F0C8F80546002D73
:105A80006BDBCAEBCA004C4901EB4000D0F80A704E
:105A900005EB850007EB8000C0883F280CD005EBA4
:105AA000850007EB8000C0880F285DD143484088FF
:105AB00000F00F00022857D1307A00F0020038B110
:105AC000307AC0F38100C0F1040906F10C0B04E048
:105AD000B0891FFA80F906F1100B05EB850007EB82
:105AE00080008088C01DC01000900098484535D1C6
:105AF000DDE90110FCF74AFB002853D005EB8500D7
:105B000007EB800001694A46584601F0DDFCFCF7CE
:105B100001F98046B8F1000F19D0264800EBC814EF
:105B20000A202080607920F00F00C01C60714FF4C3
:105B30004050E0800298A4F809000198E0726020CB
:105B400020720020E06003201D4901F80800DDE913
:105B50000110FCF79BFA25E01FE018E0194ADDE987
:105B60000110FFF751FF1DE005EB850007EB8000FA
:105B7000C0880F2805D1144ADDE90110FFF744FF62
:105B800010E0124ADDE90110FFF73EFF0AE0104A7B
:105B9000DDE90110FFF738FF04E00E4ADDE90110EE
:105BA000FFF732FF00200649087004490874BDE879
:105BB000FE8F000018080020B8950008CC070020D0
:105BC0005000002010000706220000080200010615
:105BD00011000906000002060246002100E0491CEF
:105BE000C1EBC100084B03EB400000889042F6DB9C
:105BF000C1EBC10003EB40000088904202D04FF09F
:105C0000FF3070470846FCE7B895000870B50246BB
:105C10000B460021C2EBC200104E06EB4000D0F84C
:105C20000A40C2EBC20006EB4000057901E0481CC7
:105C300001B201EB810004EB80000088984201DA98
:105C4000A942F4DB01EB810004EB8000008898425C
:105C500002D04FF0FF3070BD0846FCE7B895000851
:105C60002DE9FE4F4FF0000B4048009000988089CE
:105C700002900098807B01900298FFF7ADFF82466A
:105C8000BAF1000F6DDB0FFA8AF00199FFF7BEFF42
:105C90000546002D61DBCAEBCA00354901EB400027
:105CA000D0F80A80FCF736F80646002E5CD02F4864
:105CB00000EBC614607920F00F00C01C60714FF437
:105CC0000040E080207A20F07F00801D2072207A42
:105CD00020F0800020720021617204F108006181CF
:105CE0000298A0810198A0730720E07305EB85005E
:105CF00008EB80004088208205EB850008EB8000DF
:105D00008088608205EB850008EB8000C088A08257
:105D100005EB850008EB8000876804F1160909E0AF
:105D2000387889F800000BF1010000F0FF0B7F1CB0
:105D300009F10109387810B1BBF16A0FF0D3387856
:105D400089F800000BF110002080032009498855D4
:105D5000002008700849087406E0084800F0C2F9FD
:105D600002E0074800F0BEF9BDE8FE8F18080020E9
:105D7000B895000850000020CC070020110009064B
:105D8000000002062DE9FC5F4FF000094148019038
:105D90000198B0F80CA05046FFF71EFF0546002DF5
:105DA00072DBFBF7B7FF0646002E70D0394800EBD8
:105DB000C614607920F00F00C01C60714FF40040E1
:105DC000E080207A20F07F00001D2072207A20F0F1
:105DD000800020720021617204F108006181A4F842
:105DE0000CA0C5EBC5002C4901EB400040880728FA
:105DF00014D1002128B2FFF709FF8346C5EBC50087
:105E0000254901EB4000D0F80A0000900BEB8B0114
:105E1000009800EB81004088E08101E00020E081F3
:105E2000C5EBC5001C4901EB400000792074C5EBAF
:105E3000C50001EB400080786074C5EBC50001EB44
:105E40004000D0F8067004F1120809E0387888F8AC
:105E5000000009F1010000F0FF097F1C08F10108B2
:105E6000387810B1B9F16E0FF0D3387888F80000A7
:105E700009F10C0020800320084988550020087093
:105E80000749087403E0FFE7064800F02BF9BDE876
:105E9000FC9F000018080020B89500085000002062
:105EA000CC070020000002062DE9F05F4FF0000B48
:105EB000002701E0781C87B2C7EBC7004E4901EB11
:105EC000400000884FF6FF718842F3D14B480783AA
:105ED000722000EB4700401E86B27220B6FBF0F63F
:105EE000DFF81CA1BAF80C00012803DD454800F0DA
:105EF000F9F802E0FBF70EFF8346BBF1000F78D004
:105F00003F4800EBCB14607920F00F00C01C60719B
:105F10004FF40040E080207A20F07F00801C207247
:105F2000BAF80C0008BB0020A081207A20F0800085
:105F300020720021617204F1080061810020324961
:105F400008702E49087408464683701E888304F141
:105F50000E052F80AD1C00202880AD1C2880AD1CB4
:105F60002880AD1C288012202080BAF80C0001285F
:105F70003BD1012E0ADD207A20F080008030207293
:105F800013201E4908744FF0390909E0207A20F0E7
:105F90008000207200201C49087018490874B94616
:105FA0000021617215484683701E14498883084693
:105FB000818B04F1080061810120A08104F10E05AC
:105FC0004FF000080BE0C8EBC8000B4901EB4000A4
:105FD00000882880AD1C08F101001FFA80F8C84530
:105FE000F1DB082000EB490020800320064901F87E
:105FF0000B00BDE8F09F0000B8950008CC0700201A
:106000001808002000000106500000202DE9F0478C
:10601000FBF780FE8046B8F1000F58D02D4800EB0A
:10602000C814607920F00F00C01C60714FF400406C
:10603000E080207A20F07F00801C20722648408B70
:106040002549898B401AC0EBC001C1EB801087B293
:106050002148808B012808DD207A20F080008030E4
:10606000207207F1390086B20AE0207A20F0800021
:106070002072002019490870174908740846068BD9
:10608000002161721448808B401E134988830846A2
:10609000818B04F10800618104F10C093D460BE09D
:1060A000C5EBC5000E4901EB40000088A9F80000CF
:1060B00009F10209681C85B2B542F1DBF01B06212B
:1060C00001EB400020800320044901F80800BDE8EE
:1060D000F087000018080020CC07002050000020A6
:1060E000B895000870B50646FBF714FE0546F5B1F5
:1060F0000F4800EBC5140A202080607920F00F00C3
:10610000C01C60714FF40040E080207A20F07F00D6
:10611000C01D2072207A20F0800020720021617260
:1061200004F108006181A68103200249485570BD31
:1061300018080020500000202DE9FC5FDFF84CA17A
:10614000BAF809B09AF80B0001905846FFF744FDE1
:106150000FFA80F9B9F1000F7EDB48460199FFF78D
:1061600055FD0646002E7FDBC9EBC900484901EB0F
:106170004000D0F80A70FBF7CDFD8046B8F1000F63
:106180007DD0504600EBC8150A202880687920F0A1
:106190000F00C01C68714FF44050E88006EB860089
:1061A00007EB800084880C200090082C01D908207F
:1061B0000090102C01D904200090182C01D9002047
:1061C0000090A5F809B00198E872202C1CD800981E
:1061D0004330287206EB860007EB8000006930B977
:1061E00006EB860007EB8000C068E86033E0E01D46
:1061F000C408A2B206EB860107EB8101086905F12C
:106200000C0101F061F926E041202872E01DC4086C
:10621000EC6004F10A007A280DD91E494C837024E1
:10622000084684834020C87406EB860007EB800094
:106230000069486102E000201649C87404F10A00B0
:106240002880A2B206EB860107EB8101086905F1FF
:10625000100101F039F902E00CE005E00FE0032045
:106260000D4901F808000AE00C4A58460199FFF769
:10627000CBFB04E00A4A58460199FFF7C5FB002012
:106280000549087003490874BDE8FC9F1808002000
:10629000B8950008CC070020500000201100090626
:1062A000000002062DE9F041DFF89C80FBF732FD8B
:1062B0000646002E41D0404600EBC6142348878B8B
:1062C000408B2249898B451A607920F00F00C01C51
:1062D00060714FF44050E08098F8080000F0100022
:1062E0002072E81C7A2808D977251848808B284422
:1062F00016498883E81C208014E000201349C874E4
:1063000048838883207A401C2072072D02D3E81C22
:10631000208007E0207AC5F1070100EB41002072E0
:106320000A202080AAB209494969C81904F1090163
:1063300001F0CAF803200649885500200449087076
:1063400002490874BDE8F08118080020CC0700203D
:10635000500000201CB50020009004236A46002154
:10636000084601F0FFFB9DF800008DF804009DF841
:1063700001008DF805009DF802008DF806009DF8DB
:1063800003008DF8070001981CBD00003EB50446CF
:1063900001940CA0006800909DF805008DF80100A4
:1063A0009DF804008DF80200002001F0AFFB0423EB
:1063B00002AA0321684601F0D5FB012001F0A6FBEB
:1063C00002983EBD030000002DE9FC478046894647
:1063D000144600200090019000264FF08041CDE946
:1063E00000104FF44370009900F008F900BF4FF41B
:1063F0004370FFF7CBFF0021CDE900019DF80300BA
:1064000000F080000028F2D1ADF80090ADF8024015
:10641000ADF804004FF40040ADF8060008226946CC
:106420004FF4427000F0C4F800BF4FF44370FFF720
:10643000ADFF0021CDE900019DF8000000F0010052
:106440000028F2D09DF8010000F01F0A0420FFF799
:106450009DFF0021CDE90001AAF1010000F0FF0A33
:1064600009F00307C7F10400A04201DD204601E066
:10647000C7F10400C5B20DEB070108EB06002A4680
:10648000FBF7E0F9601B84B27019C6B2002001F07E
:106490003DFB0B2000F086F8042000F05BF80120A3
:1064A00000F080F818E0FFF755FF0021CDE900016A
:1064B000042C01DD042000E02046C5B208EB0600F4
:1064C0002A466946FBF7BEF97019C6B2601B84B252
:1064D000AAF1010000F0FF0A002CE4D1012001F034
:1064E00015FBBDE8FC872DE9FC4106460F46154625
:1064F00000200190002400979DF800008DF8040012
:106500009DF801008DF805008DF80650C0208DF82B
:1065100007004FF44170019900F070F800BF4FF48C
:106520004170FFF733FF01909DF8070000F08000F5
:106530000028F4D14FF44070FFF728FF01900024A9
:1065400004E001A8005D3055601CC4B2AC42F8DB29
:10655000BDE8FC811CB5044601949DF805008DF84A
:1065600000009DF804008DF801000221684601F04A
:10657000D9FA1CBD1CB5044601949DF804008DF8A1
:1065800000009DF805008DF801009DF806008DF8CB
:1065900002009DF807008DF803000421684601F011
:1065A000C1FA1CBD10B50446204601F017FB10BD12
:1065B0002DE9FC4104460D46164601942F460EA0D7
:1065C000006800909DF8050040F040008DF8010043
:1065D0009DF804008DF80200002001F097FA0321D5
:1065E000684601F09FFA3146384601F09BFA0120D7
:1065F00001F08CFABDE8FC81020000007FB5054681
:106600000C460295039413A103C9CDE900019DF83E
:1066100009008DF801009DF808008DF802009DF832
:106620000C008DF803009DF80D008DF804009DF816
:106630000E008DF805009DF80F008DF80600002073
:1066400001F064FA0721684601F06CFA012001F0BC
:106650005DFA7FBD02000000000000002DE9FC474C
:1066600080468946144600200090019000264FF095
:1066700080400021CDE900014FF445700099FFF7FB
:10668000BDFF00BF4FF44570FFF780FE0021CDE94C
:1066900000019DF8030000F080000028F2D1ADF861
:1066A0000090ADF80240ADF804004FF40040ADF8A2
:1066B0000600082269464FF44470FFF779FF00BFD7
:1066C0004FF44570FFF762FE0021CDE900019DF80F
:1066D000000000F001000028F2D09DF8010000F059
:1066E0001F0A09F00307C7F10400A04201DD20469C
:1066F00001E0C7F10400C5B200210091019108EB4F
:1067000006010DEB07002A46FBF79CF820200099B4
:10671000FFF774FFAAF1010000F0FF0A601B84B2CA
:106720007019C6B2002001F0F1F90220FFF73AFF1C
:106730002020FFF70FFF19E0042C01DD042000E00A
:106740002046C5B200210091019108EB06012A46BE
:106750006846FBF777F80098FFF70CFF7019C6B290
:10676000601B84B2AAF1010000F0FF0A002CE3D103
:10677000012001F0CBF9BDE8FC872DE9FC4106467C
:106780000F46154600200190002400BF04E0305D54
:1067900001A90855601CC4B2AC42F8DB4FF440704C
:1067A0000199FFF72BFF00979DF800008DF804007A
:1067B0009DF801008DF805008DF8065080208DF8B9
:1067C00007004FF441700199FFF718FF00BF4FF425
:1067D0004170FFF7DBFD01909DF8070000F080009D
:1067E0000028F4D1BDE8FC8170B504460D462B4667
:1067F00000224FF4C051204600F016F828B1206E58
:1068000040F020002066032070BD2B46002280212E
:10681000204600F063F828B1206E40F0200020668A
:106820000320F1E70020EFE72DE9F84304460E4688
:1068300017461D46FCF724FB804648E0B6F5C06FBE
:1068400005D127B92068007B00909DF80000681CE6
:10685000E0B32DB1FCF714FBA0EB0800A84236D33F
:106860002068406820F0E000216848606068B0F56A
:10687000827F0DD1A068B0F5004F03D0A068B0F5BD
:10688000806F05D12068006820F040002168086012
:10689000A06AB0F5005F0ED100BF206800684DF619
:1068A000FF710840216808602068006840F40050CB
:1068B0002168086000BF012084F85D0000BF00204F
:1068C00084F85C0000BF0320BDE8F883FFE7206880
:1068D00080683040B842B1D10020F5E72DE9F041A1
:1068E00004460E4617461D46FCF7CAFA80463FE0AE
:1068F000681CE0B32DB1FCF7C3FAA0EB0800A84276
:1069000036D32068406820F0E00021684860606865
:10691000B0F5827F0DD1A068B0F5004F03D0A0681C
:10692000B0F5806F05D12068006820F04000216834
:106930000860A06AB0F5005F0ED100BF2068006853
:106940004DF6FF710840216808602068006840F437
:1069500000502168086000BF012084F85D0000BF7E
:10696000002084F85C0000BF0320BDE8F081FFE751
:10697000206880683040B842BAD10020F5E77047FF
:1069800010B5FCF783FAFEF76AFC10BD10B5A6B08F
:1069900001201C9000041D9002202290C1031CA81D
:1069A000C1610901016200214162FDF7CBFC08B120
:1069B000FBF7D0FF0F2017900220189000201990AD
:1069C0004FF480601A9000201B90022117A8FDF759
:1069D000F1FA08B1FBF7BEFF1348019001200390C4
:1069E000000404901020089040200A900020169087
:1069F0004FF080700F9001A8FDF706F908B1FBF782
:106A0000A9FFFDF74DFC4FF47A71B0FBF1F420467D
:106A1000FEF70BFC0420FEF7F3FB00221146501E8C
:106A2000FCF7A0FA26B010BD230016001948006834
:106A300040F47000174908601748006840F00100F2
:106A400015490860084640681449084012494860E2
:106A500008460068124908400F4908600846006867
:106A600020F4802008600846406820F4FE0048605A
:106A70000846C06A20F00F00C8620846006B09494A
:106A800008400549086300208860C803014980392F
:106A90000860704788ED00E0001002400CC07FF8ED
:106AA000FFFFF6FECCFC00FF10B50248FEF7DEFB50
:106AB00010BD00000001002010B50A4802880A49F4
:106AC0004FF48C50FBF78CFE0748007E00F001006D
:106AD00006490870044890F8310000F00100487041
:106AE00010BD000060000020980900205800002020
:106AF00070B504460D46D4F8140229464268204673
:106B00009047002070BD70B504460D4694F8FC0116
:106B1000022802D0032811D100E000BF68880128B4
:106B20000BD10020C4F80402D4F81402294682686C
:106B300020469047204600F04AF804E029462046C7
:106B400000F01BF800BF00BF70BD70B506460C46D4
:106B500015462B4622460021304600F019FA002047
:106B600070BD70B506460C4615462B4622460021E0
:106B7000304600F0B0FA002070BD70B504460D46F6
:106B80008021204600F093FA0021204600F08FFA81
:106B900070BD10B504460520C4F8F40100231A4660
:106BA0001946204600F0F4F9002010BD70B50446E7
:106BB0000E4615460220C4F8F401A561E5612B4696
:106BC00032460021204600F086FA002070BD10B544
:106BD00004460420C4F8F40100231A46194620464E
:106BE00000F079FA002010BD70B504460D46E88823
:106BF000012804D029462046FFF7BFFF1BE094F888
:106C0000FC01022802D003280FD108E00020A06078
:106C1000012204F108012046FFF7C8FF0AE0012223
:106C2000211D2046FFF7C2FF04E029462046FFF75A
:106C3000A4FF00BF00BF70BDF8B504460E467088C3
:106C4000001208287FD2DFE800F07E040C207E7E50
:106C50005F6D207CD4F810120A686946904705469B
:106C600076E0207C40B9D4F81402816A68468847EF
:106C700005460221697007E0D4F81402C16A68462B
:106C8000884705460221697062E0B078062834D250
:106C9000DFE800F0030B131B232B207CD4F8101229
:106CA0004A686946904705462CE0207CD4F81012CB
:106CB0008A6869469047054624E0207CD4F8101283
:106CC000CA686946904705461CE0207CD4F810123B
:106CD0000A6969469047054614E0207CD4F81012F2
:106CE0004A696946904705460CE0207CD4F81012AA
:106CF0008A6969469047054604E031462046FFF719
:106D00003CFFF8BD00BF23E0207C30B9D4F814026A
:106D1000416B6846884705461AE031462046FFF732
:106D20002CFFEEE7207C48B9D4F81402016B6846CA
:106D300088470546072169700AE004E0314620468D
:106D4000FFF71BFFDDE731462046FFF716FFD8E7C8
:106D500000BFBDF8000088B1F08878B1F088BDF8B8
:106D60000010884202DDBDF8000000E0F0880090CD
:106D7000BDF8002029462046FFF718FF00BFC0E7F6
:106D800070B504460D4694F8FC01022802D0032891
:106D900011D100E000BF0120E060D4F8040218B176
:106DA000E06840F00200E060022204F10C0120469D
:106DB000FFF7FCFE04E029462046FFF7DEFE00BF99
:106DC00000BF70BD70B504460D462946D4F82002B8
:106DD000FCF73AF9002070BD2DE9F04104460E465B
:106DE0001746002E54D104F11405D4F8F4010228FA
:106DF00043D1D5E90201884210D9D5E90201401AF0
:106E0000A860288982B239462046FFF7AAFE0023EF
:106E10001A461946204600F0BBF82EE0E96868687B
:106E2000B0FBF1F201FB1200B8B9E968686888426A
:106E300013D36868D4F8F81188420ED200221146A4
:106E40002046FFF78EFE0020C4F8F80100231A4602
:106E50001946204600F09CF80FE0D4F81402C068F0
:106E600040B194F8FC01032804D1D4F81402C1689D
:106E7000204688472046FFF78CFE94F80002012840
:106E800014D1204600F04BF9002084F800020DE0F8
:106E9000D4F81402406948B194F8FC01032805D1E4
:106EA000D4F8140231464269204690470020BDE8DC
:106EB000F0812DE9F04105460E4617465EBB05F50B
:106EC0008274D5F8F401032833D1D4E90201884251
:106ED00010D9D4E90201401AA060D4E90201884225
:106EE00001D2A06800E0E06882B239462846FFF788
:106EF0002CFE1EE0D5F81402006940B195F8FC01A3
:106F0000032804D1D5F81402016928468847284689
:106F1000FFF75DFE0DE0D5F81402806948B195F8E1
:106F2000FC01032805D1D5F81402314682692846B0
:106F300090470020BDE8F08110B50246D2F820321B
:106F400001F08000802809D101F07F00C0EBC0046F
:106F500003F1280000EB8400807810BD01F07F0071
:106F6000C0EBC00403F5E67000EB84008078F4E722
:106F70002DE9F04104460F4615461E462B46324683
:106F80003946D4F82002FCF7EFF80020BDE8F08184
:106F90002DE9F04104460D4616461F463B46324653
:106FA0002946D4F82002FCF76AFB0020BDE8F081F6
:106FB00010B504464023002211462046FFF7D8FFB3
:106FC00040214FF488700151402300228021204647
:106FD000FFF7CEFF40212162012084F8FC01D4F8A4
:106FE000180228B12179D4F814024268204690474B
